{
  "_format": "hh-sol-artifact-1",
  "contractName": "NFTFLOW",
  "sourceName": "contracts/NFTflow.sol",
  "abi": [
    {
      "inputs": [],
      "stateMutability": "nonpayable",
      "type": "constructor"
    },
    {
      "anonymous": false,
      "inputs": [
        {
          "indexed": true,
          "internalType": "address",
          "name": "owner",
          "type": "address"
        },
        {
          "indexed": true,
          "internalType": "address",
          "name": "approved",
          "type": "address"
        },
        {
          "indexed": true,
          "internalType": "uint256",
          "name": "tokenId",
          "type": "uint256"
        }
      ],
      "name": "Approval",
      "type": "event"
    },
    {
      "anonymous": false,
      "inputs": [
        {
          "indexed": true,
          "internalType": "address",
          "name": "owner",
          "type": "address"
        },
        {
          "indexed": true,
          "internalType": "address",
          "name": "operator",
          "type": "address"
        },
        {
          "indexed": false,
          "internalType": "bool",
          "name": "approved",
          "type": "bool"
        }
      ],
      "name": "ApprovalForAll",
      "type": "event"
    },
    {
      "anonymous": false,
      "inputs": [
        {
          "indexed": false,
          "internalType": "uint256",
          "name": "tokenId",
          "type": "uint256"
        },
        {
          "indexed": false,
          "internalType": "address",
          "name": "owner",
          "type": "address"
        }
      ],
      "name": "NFTMinted",
      "type": "event"
    },
    {
      "anonymous": false,
      "inputs": [
        {
          "indexed": true,
          "internalType": "address",
          "name": "previousOwner",
          "type": "address"
        },
        {
          "indexed": true,
          "internalType": "address",
          "name": "newOwner",
          "type": "address"
        }
      ],
      "name": "OwnershipTransferred",
      "type": "event"
    },
    {
      "anonymous": false,
      "inputs": [
        {
          "indexed": true,
          "internalType": "address",
          "name": "from",
          "type": "address"
        },
        {
          "indexed": true,
          "internalType": "address",
          "name": "to",
          "type": "address"
        },
        {
          "indexed": true,
          "internalType": "uint256",
          "name": "tokenId",
          "type": "uint256"
        }
      ],
      "name": "Transfer",
      "type": "event"
    },
    {
      "inputs": [],
      "name": "MAX_TOKENS",
      "outputs": [
        {
          "internalType": "uint256",
          "name": "",
          "type": "uint256"
        }
      ],
      "stateMutability": "view",
      "type": "function"
    },
    {
      "inputs": [
        {
          "internalType": "address",
          "name": "to",
          "type": "address"
        },
        {
          "internalType": "uint256",
          "name": "tokenId",
          "type": "uint256"
        }
      ],
      "name": "approve",
      "outputs": [],
      "stateMutability": "nonpayable",
      "type": "function"
    },
    {
      "inputs": [
        {
          "internalType": "address",
          "name": "owner",
          "type": "address"
        }
      ],
      "name": "balanceOf",
      "outputs": [
        {
          "internalType": "uint256",
          "name": "",
          "type": "uint256"
        }
      ],
      "stateMutability": "view",
      "type": "function"
    },
    {
      "inputs": [],
      "name": "baseURI",
      "outputs": [
        {
          "internalType": "string",
          "name": "",
          "type": "string"
        }
      ],
      "stateMutability": "view",
      "type": "function"
    },
    {
      "inputs": [
        {
          "internalType": "uint256",
          "name": "tokenId",
          "type": "uint256"
        }
      ],
      "name": "getApproved",
      "outputs": [
        {
          "internalType": "address",
          "name": "",
          "type": "address"
        }
      ],
      "stateMutability": "view",
      "type": "function"
    },
    {
      "inputs": [],
      "name": "getTokensMinted",
      "outputs": [
        {
          "internalType": "uint256",
          "name": "",
          "type": "uint256"
        }
      ],
      "stateMutability": "view",
      "type": "function"
    },
    {
      "inputs": [
        {
          "internalType": "address",
          "name": "owner",
          "type": "address"
        },
        {
          "internalType": "address",
          "name": "operator",
          "type": "address"
        }
      ],
      "name": "isApprovedForAll",
      "outputs": [
        {
          "internalType": "bool",
          "name": "",
          "type": "bool"
        }
      ],
      "stateMutability": "view",
      "type": "function"
    },
    {
      "inputs": [],
      "name": "maxTokenPurchase",
      "outputs": [
        {
          "internalType": "uint256",
          "name": "",
          "type": "uint256"
        }
      ],
      "stateMutability": "view",
      "type": "function"
    },
    {
      "inputs": [],
      "name": "mintNFTEth",
      "outputs": [],
      "stateMutability": "payable",
      "type": "function"
    },
    {
      "inputs": [
        {
          "internalType": "address",
          "name": "receiver",
          "type": "address"
        },
        {
          "internalType": "uint256",
          "name": "numberOfTokens",
          "type": "uint256"
        }
      ],
      "name": "mintTo",
      "outputs": [],
      "stateMutability": "nonpayable",
      "type": "function"
    },
    {
      "inputs": [],
      "name": "name",
      "outputs": [
        {
          "internalType": "string",
          "name": "",
          "type": "string"
        }
      ],
      "stateMutability": "view",
      "type": "function"
    },
    {
      "inputs": [],
      "name": "owner",
      "outputs": [
        {
          "internalType": "address",
          "name": "",
          "type": "address"
        }
      ],
      "stateMutability": "view",
      "type": "function"
    },
    {
      "inputs": [
        {
          "internalType": "uint256",
          "name": "tokenId",
          "type": "uint256"
        }
      ],
      "name": "ownerOf",
      "outputs": [
        {
          "internalType": "address",
          "name": "",
          "type": "address"
        }
      ],
      "stateMutability": "view",
      "type": "function"
    },
    {
      "inputs": [],
      "name": "renounceOwnership",
      "outputs": [],
      "stateMutability": "nonpayable",
      "type": "function"
    },
    {
      "inputs": [
        {
          "internalType": "address",
          "name": "from",
          "type": "address"
        },
        {
          "internalType": "address",
          "name": "to",
          "type": "address"
        },
        {
          "internalType": "uint256",
          "name": "tokenId",
          "type": "uint256"
        }
      ],
      "name": "safeTransferFrom",
      "outputs": [],
      "stateMutability": "nonpayable",
      "type": "function"
    },
    {
      "inputs": [
        {
          "internalType": "address",
          "name": "from",
          "type": "address"
        },
        {
          "internalType": "address",
          "name": "to",
          "type": "address"
        },
        {
          "internalType": "uint256",
          "name": "tokenId",
          "type": "uint256"
        },
        {
          "internalType": "bytes",
          "name": "_data",
          "type": "bytes"
        }
      ],
      "name": "safeTransferFrom",
      "outputs": [],
      "stateMutability": "nonpayable",
      "type": "function"
    },
    {
      "inputs": [],
      "name": "saleIsActive",
      "outputs": [
        {
          "internalType": "bool",
          "name": "",
          "type": "bool"
        }
      ],
      "stateMutability": "view",
      "type": "function"
    },
    {
      "inputs": [
        {
          "internalType": "address",
          "name": "operator",
          "type": "address"
        },
        {
          "internalType": "bool",
          "name": "approved",
          "type": "bool"
        }
      ],
      "name": "setApprovalForAll",
      "outputs": [],
      "stateMutability": "nonpayable",
      "type": "function"
    },
    {
      "inputs": [
        {
          "internalType": "string",
          "name": "_newBaseURI",
          "type": "string"
        }
      ],
      "name": "setBaseURI",
      "outputs": [],
      "stateMutability": "nonpayable",
      "type": "function"
    },
    {
      "inputs": [
        {
          "internalType": "uint256",
          "name": "_price",
          "type": "uint256"
        }
      ],
      "name": "setPrice",
      "outputs": [],
      "stateMutability": "nonpayable",
      "type": "function"
    },
    {
      "inputs": [
        {
          "internalType": "bytes4",
          "name": "interfaceId",
          "type": "bytes4"
        }
      ],
      "name": "supportsInterface",
      "outputs": [
        {
          "internalType": "bool",
          "name": "",
          "type": "bool"
        }
      ],
      "stateMutability": "view",
      "type": "function"
    },
    {
      "inputs": [],
      "name": "symbol",
      "outputs": [
        {
          "internalType": "string",
          "name": "",
          "type": "string"
        }
      ],
      "stateMutability": "view",
      "type": "function"
    },
    {
      "inputs": [],
      "name": "toggleSaleState",
      "outputs": [],
      "stateMutability": "nonpayable",
      "type": "function"
    },
    {
      "inputs": [
        {
          "internalType": "uint256",
          "name": "index",
          "type": "uint256"
        }
      ],
      "name": "tokenByIndex",
      "outputs": [
        {
          "internalType": "uint256",
          "name": "",
          "type": "uint256"
        }
      ],
      "stateMutability": "view",
      "type": "function"
    },
    {
      "inputs": [
        {
          "internalType": "address",
          "name": "owner",
          "type": "address"
        },
        {
          "internalType": "uint256",
          "name": "index",
          "type": "uint256"
        }
      ],
      "name": "tokenOfOwnerByIndex",
      "outputs": [
        {
          "internalType": "uint256",
          "name": "",
          "type": "uint256"
        }
      ],
      "stateMutability": "view",
      "type": "function"
    },
    {
      "inputs": [],
      "name": "tokenPrice",
      "outputs": [
        {
          "internalType": "uint256",
          "name": "",
          "type": "uint256"
        }
      ],
      "stateMutability": "view",
      "type": "function"
    },
    {
      "inputs": [
        {
          "internalType": "uint256",
          "name": "tokenId",
          "type": "uint256"
        }
      ],
      "name": "tokenURI",
      "outputs": [
        {
          "internalType": "string",
          "name": "",
          "type": "string"
        }
      ],
      "stateMutability": "view",
      "type": "function"
    },
    {
      "inputs": [],
      "name": "totalSupply",
      "outputs": [
        {
          "internalType": "uint256",
          "name": "",
          "type": "uint256"
        }
      ],
      "stateMutability": "view",
      "type": "function"
    },
    {
      "inputs": [
        {
          "internalType": "address",
          "name": "from",
          "type": "address"
        },
        {
          "internalType": "address",
          "name": "to",
          "type": "address"
        },
        {
          "internalType": "uint256",
          "name": "tokenId",
          "type": "uint256"
        }
      ],
      "name": "transferFrom",
      "outputs": [],
      "stateMutability": "nonpayable",
      "type": "function"
    },
    {
      "inputs": [
        {
          "internalType": "address",
          "name": "newOwner",
          "type": "address"
        }
      ],
      "name": "transferOwnership",
      "outputs": [],
      "stateMutability": "nonpayable",
      "type": "function"
    },
    {
      "inputs": [],
      "name": "withdraw",
      "outputs": [],
      "stateMutability": "payable",
      "type": "function"
    }
  ],
  "bytecode": "0x608060405267016345785d8a0000600b556001600c55610457600d556040518060800160405280605181526020016200416f60519139600e90805190602001906200004c9291906200020a565b506001600f60006101000a81548160ff0219169083151502179055503480156200007557600080fd5b506040518060400160405280601781526020017f4e4654666c6f77204d656d6265727368697020506173730000000000000000008152506040518060400160405280600781526020017f4e4654666c6f77000000000000000000000000000000000000000000000000008152508160009080519060200190620000fa9291906200020a565b508060019080519060200190620001139291906200020a565b505050620001366200012a6200013c60201b60201c565b6200014460201b60201c565b6200031f565b600033905090565b6000600660009054906101000a900473ffffffffffffffffffffffffffffffffffffffff16905081600660006101000a81548173ffffffffffffffffffffffffffffffffffffffff021916908373ffffffffffffffffffffffffffffffffffffffff1602179055508173ffffffffffffffffffffffffffffffffffffffff168173ffffffffffffffffffffffffffffffffffffffff167f8be0079c531659141344cd1fd0a4f28419497f9722a3daafe3b4186f6b6457e060405160405180910390a35050565b8280546200021890620002ba565b90600052602060002090601f0160209004810192826200023c576000855562000288565b82601f106200025757805160ff191683800117855562000288565b8280016001018555821562000288579182015b82811115620002875782518255916020019190600101906200026a565b5b5090506200029791906200029b565b5090565b5b80821115620002b65760008160009055506001016200029c565b5090565b60006002820490506001821680620002d357607f821691505b60208210811415620002ea57620002e9620002f0565b5b50919050565b7f4e487b7100000000000000000000000000000000000000000000000000000000600052602260045260246000fd5b613e40806200032f6000396000f3fe6080604052600436106101d85760003560e01c806370a0823111610102578063b88d4fde11610095578063e985e9c511610064578063e985e9c51461066a578063eb8d2444146106a7578063f2fde38b146106d2578063f47c84c5146106fb576101d8565b8063b88d4fde146105c2578063c87b56dd146105eb578063d69f6bae14610628578063daaeec8614610653576101d8565b806391b7f5ed116100d157806391b7f5ed1461053b57806395d89b4114610564578063a22cb4651461058f578063b42e620d146105b8576101d8565b806370a0823114610491578063715018a6146104ce5780637ff9b596146104e55780638da5cb5b14610510576101d8565b80632f745c591161017a5780634f6ccce7116101495780634f6ccce7146103c357806355f804b3146104005780636352211e146104295780636c0360eb14610466576101d8565b80632f745c591461032a5780633ccfd60b1461036757806342842e0e14610371578063449a52f81461039a576101d8565b8063095ea7b3116101b6578063095ea7b31461028257806309aa3dcf146102ab57806318160ddd146102d657806323b872dd14610301576101d8565b806301ffc9a7146101dd57806306fdde031461021a578063081812fc14610245575b600080fd5b3480156101e957600080fd5b5061020460048036038101906101ff9190612c62565b610726565b604051610211919061318e565b60405180910390f35b34801561022657600080fd5b5061022f610738565b60405161023c91906131a9565b60405180910390f35b34801561025157600080fd5b5061026c60048036038101906102679190612cf5565b6107ca565b6040516102799190613127565b60405180910390f35b34801561028e57600080fd5b506102a960048036038101906102a49190612c26565b61084f565b005b3480156102b757600080fd5b506102c0610967565b6040516102cd919061344b565b60405180910390f35b3480156102e257600080fd5b506102eb61096d565b6040516102f8919061344b565b60405180910390f35b34801561030d57600080fd5b5061032860048036038101906103239190612b20565b61097a565b005b34801561033657600080fd5b50610351600480360381019061034c9190612c26565b6109da565b60405161035e919061344b565b60405180910390f35b61036f610a7f565b005b34801561037d57600080fd5b5061039860048036038101906103939190612b20565b610b7b565b005b3480156103a657600080fd5b506103c160048036038101906103bc9190612c26565b610b9b565b005b3480156103cf57600080fd5b506103ea60048036038101906103e59190612cf5565b610d0e565b6040516103f7919061344b565b60405180910390f35b34801561040c57600080fd5b5061042760048036038101906104229190612cb4565b610da5565b005b34801561043557600080fd5b50610450600480360381019061044b9190612cf5565b610e3b565b60405161045d9190613127565b60405180910390f35b34801561047257600080fd5b5061047b610eed565b60405161048891906131a9565b60405180910390f35b34801561049d57600080fd5b506104b860048036038101906104b39190612abb565b610f7b565b6040516104c5919061344b565b60405180910390f35b3480156104da57600080fd5b506104e3611033565b005b3480156104f157600080fd5b506104fa6110bb565b604051610507919061344b565b60405180910390f35b34801561051c57600080fd5b506105256110c1565b6040516105329190613127565b60405180910390f35b34801561054757600080fd5b50610562600480360381019061055d9190612cf5565b6110eb565b005b34801561057057600080fd5b50610579611171565b60405161058691906131a9565b60405180910390f35b34801561059b57600080fd5b506105b660048036038101906105b19190612bea565b611203565b005b6105c0611219565b005b3480156105ce57600080fd5b506105e960048036038101906105e49190612b6f565b611362565b005b3480156105f757600080fd5b50610612600480360381019061060d9190612cf5565b6113c4565b60405161061f91906131a9565b60405180910390f35b34801561063457600080fd5b5061063d611461565b60405161064a919061344b565b60405180910390f35b34801561065f57600080fd5b50610668611470565b005b34801561067657600080fd5b50610691600480360381019061068c9190612ae4565b611518565b60405161069e919061318e565b60405180910390f35b3480156106b357600080fd5b506106bc6115ac565b6040516106c9919061318e565b60405180910390f35b3480156106de57600080fd5b506106f960048036038101906106f49190612abb565b6115bf565b005b34801561070757600080fd5b506107106116b7565b60405161071d919061344b565b60405180910390f35b6000610731826116bd565b9050919050565b606060008054610747906136a4565b80601f0160208091040260200160405190810160405280929190818152602001828054610773906136a4565b80156107c05780601f10610795576101008083540402835291602001916107c0565b820191906000526020600020905b8154815290600101906020018083116107a357829003601f168201915b5050505050905090565b60006107d582611737565b610814576040517f08c379a000000000000000000000000000000000000000000000000000000000815260040161080b9061338b565b60405180910390fd5b6004600083815260200190815260200160002060009054906101000a900473ffffffffffffffffffffffffffffffffffffffff169050919050565b600061085a82610e3b565b90508073ffffffffffffffffffffffffffffffffffffffff168373ffffffffffffffffffffffffffffffffffffffff1614156108cb576040517f08c379a00000000000000000000000000000000000000000000000000000000081526004016108c2906133eb565b60405180910390fd5b8073ffffffffffffffffffffffffffffffffffffffff166108ea6117a3565b73ffffffffffffffffffffffffffffffffffffffff1614806109195750610918816109136117a3565b611518565b5b610958576040517f08c379a000000000000000000000000000000000000000000000000000000000815260040161094f906132eb565b60405180910390fd5b61096283836117ab565b505050565b600c5481565b6000600980549050905090565b61098b6109856117a3565b82611864565b6109ca576040517f08c379a00000000000000000000000000000000000000000000000000000000081526004016109c19061340b565b60405180910390fd5b6109d5838383611942565b505050565b60006109e583610f7b565b8210610a26576040517f08c379a0000000000000000000000000000000000000000000000000000000008152600401610a1d906131cb565b60405180910390fd5b600760008473ffffffffffffffffffffffffffffffffffffffff1673ffffffffffffffffffffffffffffffffffffffff168152602001908152602001600020600083815260200190815260200160002054905092915050565b610a876117a3565b73ffffffffffffffffffffffffffffffffffffffff16610aa56110c1565b73ffffffffffffffffffffffffffffffffffffffff1614610afb576040517f08c379a0000000000000000000000000000000000000000000000000000000008152600401610af2906133ab565b60405180910390fd5b6000610b056110c1565b73ffffffffffffffffffffffffffffffffffffffff1647604051610b2890613112565b60006040518083038185875af1925050503d8060008114610b65576040519150601f19603f3d011682016040523d82523d6000602084013e610b6a565b606091505b5050905080610b7857600080fd5b50565b610b9683838360405180602001604052806000815250611362565b505050565b610ba36117a3565b73ffffffffffffffffffffffffffffffffffffffff16610bc16110c1565b73ffffffffffffffffffffffffffffffffffffffff1614610c17576040517f08c379a0000000000000000000000000000000000000000000000000000000008152600401610c0e906133ab565b60405180910390fd5b600d54610c356001610c2761096d565b611ba990919063ffffffff16565b1115610c76576040517f08c379a0000000000000000000000000000000000000000000000000000000008152600401610c6d9061334b565b60405180910390fd5b60005b81811015610d09576000610c9e6001610c9061096d565b611ba990919063ffffffff16565b9050600d54610cab61096d565b1015610cf557610cbb8482611bbf565b7f0176f203df400d7bd5f1b1c9ef36c16709bf3b5d9fd35f000a6bae32393f66c38185604051610cec929190613466565b60405180910390a15b508080610d0190613707565b915050610c79565b505050565b6000610d1861096d565b8210610d59576040517f08c379a0000000000000000000000000000000000000000000000000000000008152600401610d509061342b565b60405180910390fd5b60098281548110610d93577f4e487b7100000000000000000000000000000000000000000000000000000000600052603260045260246000fd5b90600052602060002001549050919050565b610dad6117a3565b73ffffffffffffffffffffffffffffffffffffffff16610dcb6110c1565b73ffffffffffffffffffffffffffffffffffffffff1614610e21576040517f08c379a0000000000000000000000000000000000000000000000000000000008152600401610e18906133ab565b60405180910390fd5b80600e9080519060200190610e379291906128df565b5050565b6000806002600084815260200190815260200160002060009054906101000a900473ffffffffffffffffffffffffffffffffffffffff169050600073ffffffffffffffffffffffffffffffffffffffff168173ffffffffffffffffffffffffffffffffffffffff161415610ee4576040517f08c379a0000000000000000000000000000000000000000000000000000000008152600401610edb9061332b565b60405180910390fd5b80915050919050565b600e8054610efa906136a4565b80601f0160208091040260200160405190810160405280929190818152602001828054610f26906136a4565b8015610f735780601f10610f4857610100808354040283529160200191610f73565b820191906000526020600020905b815481529060010190602001808311610f5657829003601f168201915b505050505081565b60008073ffffffffffffffffffffffffffffffffffffffff168273ffffffffffffffffffffffffffffffffffffffff161415610fec576040517f08c379a0000000000000000000000000000000000000000000000000000000008152600401610fe39061330b565b60405180910390fd5b600360008373ffffffffffffffffffffffffffffffffffffffff1673ffffffffffffffffffffffffffffffffffffffff168152602001908152602001600020549050919050565b61103b6117a3565b73ffffffffffffffffffffffffffffffffffffffff166110596110c1565b73ffffffffffffffffffffffffffffffffffffffff16146110af576040517f08c379a00000000000000000000000000000000000000000000000000000000081526004016110a6906133ab565b60405180910390fd5b6110b96000611bdd565b565b600b5481565b6000600660009054906101000a900473ffffffffffffffffffffffffffffffffffffffff16905090565b6110f36117a3565b73ffffffffffffffffffffffffffffffffffffffff166111116110c1565b73ffffffffffffffffffffffffffffffffffffffff1614611167576040517f08c379a000000000000000000000000000000000000000000000000000000000815260040161115e906133ab565b60405180910390fd5b80600b8190555050565b606060018054611180906136a4565b80601f01602080910402602001604051908101604052809291908181526020018280546111ac906136a4565b80156111f95780601f106111ce576101008083540402835291602001916111f9565b820191906000526020600020905b8154815290600101906020018083116111dc57829003601f168201915b5050505050905090565b61121561120e6117a3565b8383611ca3565b5050565b600f60009054906101000a900460ff16611268576040517f08c379a000000000000000000000000000000000000000000000000000000000815260040161125f9061326b565b60405180910390fd5b600d54611286600161127861096d565b611ba990919063ffffffff16565b11156112c7576040517f08c379a00000000000000000000000000000000000000000000000000000000081526004016112be9061334b565b60405180910390fd5b60006112d233610f7b565b146112dc57600080fd5b600b543410156112eb57600080fd5b600061130860016112fa61096d565b611ba990919063ffffffff16565b9050600d5461131561096d565b101561135f576113253382611bbf565b7f0176f203df400d7bd5f1b1c9ef36c16709bf3b5d9fd35f000a6bae32393f66c38133604051611356929190613466565b60405180910390a15b50565b61137361136d6117a3565b83611864565b6113b2576040517f08c379a00000000000000000000000000000000000000000000000000000000081526004016113a99061340b565b60405180910390fd5b6113be84848484611e10565b50505050565b60606113cf82611737565b61140e576040517f08c379a0000000000000000000000000000000000000000000000000000000008152600401611405906133cb565b60405180910390fd5b6000611418611e6c565b905060008151116114385760405180602001604052806000815250611459565b8060405160200161144991906130f0565b6040516020818303038152906040525b915050919050565b600061146b61096d565b905090565b6114786117a3565b73ffffffffffffffffffffffffffffffffffffffff166114966110c1565b73ffffffffffffffffffffffffffffffffffffffff16146114ec576040517f08c379a00000000000000000000000000000000000000000000000000000000081526004016114e3906133ab565b60405180910390fd5b600f60009054906101000a900460ff1615600f60006101000a81548160ff021916908315150217905550565b6000600560008473ffffffffffffffffffffffffffffffffffffffff1673ffffffffffffffffffffffffffffffffffffffff16815260200190815260200160002060008373ffffffffffffffffffffffffffffffffffffffff1673ffffffffffffffffffffffffffffffffffffffff16815260200190815260200160002060009054906101000a900460ff16905092915050565b600f60009054906101000a900460ff1681565b6115c76117a3565b73ffffffffffffffffffffffffffffffffffffffff166115e56110c1565b73ffffffffffffffffffffffffffffffffffffffff161461163b576040517f08c379a0000000000000000000000000000000000000000000000000000000008152600401611632906133ab565b60405180910390fd5b600073ffffffffffffffffffffffffffffffffffffffff168173ffffffffffffffffffffffffffffffffffffffff1614156116ab576040517f08c379a00000000000000000000000000000000000000000000000000000000081526004016116a29061320b565b60405180910390fd5b6116b481611bdd565b50565b600d5481565b60007f780e9d63000000000000000000000000000000000000000000000000000000007bffffffffffffffffffffffffffffffffffffffffffffffffffffffff1916827bffffffffffffffffffffffffffffffffffffffffffffffffffffffff19161480611730575061172f82611efe565b5b9050919050565b60008073ffffffffffffffffffffffffffffffffffffffff166002600084815260200190815260200160002060009054906101000a900473ffffffffffffffffffffffffffffffffffffffff1673ffffffffffffffffffffffffffffffffffffffff1614159050919050565b600033905090565b816004600083815260200190815260200160002060006101000a81548173ffffffffffffffffffffffffffffffffffffffff021916908373ffffffffffffffffffffffffffffffffffffffff160217905550808273ffffffffffffffffffffffffffffffffffffffff1661181e83610e3b565b73ffffffffffffffffffffffffffffffffffffffff167f8c5be1e5ebec7d5bd14f71427d1e84f3dd0314c0f7b2291e5b200ac8c7c3b92560405160405180910390a45050565b600061186f82611737565b6118ae576040517f08c379a00000000000000000000000000000000000000000000000000000000081526004016118a5906132cb565b60405180910390fd5b60006118b983610e3b565b90508073ffffffffffffffffffffffffffffffffffffffff168473ffffffffffffffffffffffffffffffffffffffff16148061192857508373ffffffffffffffffffffffffffffffffffffffff16611910846107ca565b73ffffffffffffffffffffffffffffffffffffffff16145b8061193957506119388185611518565b5b91505092915050565b8273ffffffffffffffffffffffffffffffffffffffff1661196282610e3b565b73ffffffffffffffffffffffffffffffffffffffff16146119b8576040517f08c379a00000000000000000000000000000000000000000000000000000000081526004016119af9061322b565b60405180910390fd5b600073ffffffffffffffffffffffffffffffffffffffff168273ffffffffffffffffffffffffffffffffffffffff161415611a28576040517f08c379a0000000000000000000000000000000000000000000000000000000008152600401611a1f9061328b565b60405180910390fd5b611a33838383611fe0565b611a3e6000826117ab565b6001600360008573ffffffffffffffffffffffffffffffffffffffff1673ffffffffffffffffffffffffffffffffffffffff1681526020019081526020016000206000828254611a8e91906135ba565b925050819055506001600360008473ffffffffffffffffffffffffffffffffffffffff1673ffffffffffffffffffffffffffffffffffffffff1681526020019081526020016000206000828254611ae59190613564565b92505081905550816002600083815260200190815260200160002060006101000a81548173ffffffffffffffffffffffffffffffffffffffff021916908373ffffffffffffffffffffffffffffffffffffffff160217905550808273ffffffffffffffffffffffffffffffffffffffff168473ffffffffffffffffffffffffffffffffffffffff167fddf252ad1be2c89b69c2b068fc378daa952ba7f163c4a11628f55a4df523b3ef60405160405180910390a4611ba4838383611ff0565b505050565b60008183611bb79190613564565b905092915050565b611bd9828260405180602001604052806000815250611ff5565b5050565b6000600660009054906101000a900473ffffffffffffffffffffffffffffffffffffffff16905081600660006101000a81548173ffffffffffffffffffffffffffffffffffffffff021916908373ffffffffffffffffffffffffffffffffffffffff1602179055508173ffffffffffffffffffffffffffffffffffffffff168173ffffffffffffffffffffffffffffffffffffffff167f8be0079c531659141344cd1fd0a4f28419497f9722a3daafe3b4186f6b6457e060405160405180910390a35050565b8173ffffffffffffffffffffffffffffffffffffffff168373ffffffffffffffffffffffffffffffffffffffff161415611d12576040517f08c379a0000000000000000000000000000000000000000000000000000000008152600401611d09906132ab565b60405180910390fd5b80600560008573ffffffffffffffffffffffffffffffffffffffff1673ffffffffffffffffffffffffffffffffffffffff16815260200190815260200160002060008473ffffffffffffffffffffffffffffffffffffffff1673ffffffffffffffffffffffffffffffffffffffff16815260200190815260200160002060006101000a81548160ff0219169083151502179055508173ffffffffffffffffffffffffffffffffffffffff168373ffffffffffffffffffffffffffffffffffffffff167f17307eab39ab6107e8899845ad3d59bd9653f200f220920489ca2b5937696c3183604051611e03919061318e565b60405180910390a3505050565b611e1b848484611942565b611e2784848484612050565b611e66576040517f08c379a0000000000000000000000000000000000000000000000000000000008152600401611e5d906131eb565b60405180910390fd5b50505050565b6060600e8054611e7b906136a4565b80601f0160208091040260200160405190810160405280929190818152602001828054611ea7906136a4565b8015611ef45780601f10611ec957610100808354040283529160200191611ef4565b820191906000526020600020905b815481529060010190602001808311611ed757829003601f168201915b5050505050905090565b60007f80ac58cd000000000000000000000000000000000000000000000000000000007bffffffffffffffffffffffffffffffffffffffffffffffffffffffff1916827bffffffffffffffffffffffffffffffffffffffffffffffffffffffff19161480611fc957507f5b5e139f000000000000000000000000000000000000000000000000000000007bffffffffffffffffffffffffffffffffffffffffffffffffffffffff1916827bffffffffffffffffffffffffffffffffffffffffffffffffffffffff1916145b80611fd95750611fd8826121e7565b5b9050919050565b611feb838383612251565b505050565b505050565b611fff8383612365565b61200c6000848484612050565b61204b576040517f08c379a0000000000000000000000000000000000000000000000000000000008152600401612042906131eb565b60405180910390fd5b505050565b60006120718473ffffffffffffffffffffffffffffffffffffffff1661253f565b156121da578373ffffffffffffffffffffffffffffffffffffffff1663150b7a0261209a6117a3565b8786866040518563ffffffff1660e01b81526004016120bc9493929190613142565b602060405180830381600087803b1580156120d657600080fd5b505af192505050801561210757506040513d601f19601f820116820180604052508101906121049190612c8b565b60015b61218a573d8060008114612137576040519150601f19603f3d011682016040523d82523d6000602084013e61213c565b606091505b50600081511415612182576040517f08c379a0000000000000000000000000000000000000000000000000000000008152600401612179906131eb565b60405180910390fd5b805181602001fd5b63150b7a0260e01b7bffffffffffffffffffffffffffffffffffffffffffffffffffffffff1916817bffffffffffffffffffffffffffffffffffffffffffffffffffffffff1916149150506121df565b600190505b949350505050565b60007f01ffc9a7000000000000000000000000000000000000000000000000000000007bffffffffffffffffffffffffffffffffffffffffffffffffffffffff1916827bffffffffffffffffffffffffffffffffffffffffffffffffffffffff1916149050919050565b61225c838383612562565b600073ffffffffffffffffffffffffffffffffffffffff168373ffffffffffffffffffffffffffffffffffffffff16141561229f5761229a81612567565b6122de565b8173ffffffffffffffffffffffffffffffffffffffff168373ffffffffffffffffffffffffffffffffffffffff16146122dd576122dc83826125b0565b5b5b600073ffffffffffffffffffffffffffffffffffffffff168273ffffffffffffffffffffffffffffffffffffffff1614156123215761231c8161271d565b612360565b8273ffffffffffffffffffffffffffffffffffffffff168273ffffffffffffffffffffffffffffffffffffffff161461235f5761235e8282612860565b5b5b505050565b600073ffffffffffffffffffffffffffffffffffffffff168273ffffffffffffffffffffffffffffffffffffffff1614156123d5576040517f08c379a00000000000000000000000000000000000000000000000000000000081526004016123cc9061336b565b60405180910390fd5b6123de81611737565b1561241e576040517f08c379a00000000000000000000000000000000000000000000000000000000081526004016124159061324b565b60405180910390fd5b61242a60008383611fe0565b6001600360008473ffffffffffffffffffffffffffffffffffffffff1673ffffffffffffffffffffffffffffffffffffffff168152602001908152602001600020600082825461247a9190613564565b92505081905550816002600083815260200190815260200160002060006101000a81548173ffffffffffffffffffffffffffffffffffffffff021916908373ffffffffffffffffffffffffffffffffffffffff160217905550808273ffffffffffffffffffffffffffffffffffffffff16600073ffffffffffffffffffffffffffffffffffffffff167fddf252ad1be2c89b69c2b068fc378daa952ba7f163c4a11628f55a4df523b3ef60405160405180910390a461253b60008383611ff0565b5050565b6000808273ffffffffffffffffffffffffffffffffffffffff163b119050919050565b505050565b600980549050600a600083815260200190815260200160002081905550600981908060018154018082558091505060019003906000526020600020016000909190919091505550565b600060016125bd84610f7b565b6125c791906135ba565b90506000600860008481526020019081526020016000205490508181146126ac576000600760008673ffffffffffffffffffffffffffffffffffffffff1673ffffffffffffffffffffffffffffffffffffffff168152602001908152602001600020600084815260200190815260200160002054905080600760008773ffffffffffffffffffffffffffffffffffffffff1673ffffffffffffffffffffffffffffffffffffffff168152602001908152602001600020600084815260200190815260200160002081905550816008600083815260200190815260200160002081905550505b6008600084815260200190815260200160002060009055600760008573ffffffffffffffffffffffffffffffffffffffff1673ffffffffffffffffffffffffffffffffffffffff16815260200190815260200160002060008381526020019081526020016000206000905550505050565b6000600160098054905061273191906135ba565b90506000600a6000848152602001908152602001600020549050600060098381548110612787577f4e487b7100000000000000000000000000000000000000000000000000000000600052603260045260246000fd5b9060005260206000200154905080600983815481106127cf577f4e487b7100000000000000000000000000000000000000000000000000000000600052603260045260246000fd5b906000526020600020018190555081600a600083815260200190815260200160002081905550600a6000858152602001908152602001600020600090556009805480612844577f4e487b7100000000000000000000000000000000000000000000000000000000600052603160045260246000fd5b6001900381819060005260206000200160009055905550505050565b600061286b83610f7b565b905081600760008573ffffffffffffffffffffffffffffffffffffffff1673ffffffffffffffffffffffffffffffffffffffff168152602001908152602001600020600083815260200190815260200160002081905550806008600084815260200190815260200160002081905550505050565b8280546128eb906136a4565b90600052602060002090601f01602090048101928261290d5760008555612954565b82601f1061292657805160ff1916838001178555612954565b82800160010185558215612954579182015b82811115612953578251825591602001919060010190612938565b5b5090506129619190612965565b5090565b5b8082111561297e576000816000905550600101612966565b5090565b6000612995612990846134b4565b61348f565b9050828152602081018484840111156129ad57600080fd5b6129b8848285613662565b509392505050565b60006129d36129ce846134e5565b61348f565b9050828152602081018484840111156129eb57600080fd5b6129f6848285613662565b509392505050565b600081359050612a0d81613dae565b92915050565b600081359050612a2281613dc5565b92915050565b600081359050612a3781613ddc565b92915050565b600081519050612a4c81613ddc565b92915050565b600082601f830112612a6357600080fd5b8135612a73848260208601612982565b91505092915050565b600082601f830112612a8d57600080fd5b8135612a9d8482602086016129c0565b91505092915050565b600081359050612ab581613df3565b92915050565b600060208284031215612acd57600080fd5b6000612adb848285016129fe565b91505092915050565b60008060408385031215612af757600080fd5b6000612b05858286016129fe565b9250506020612b16858286016129fe565b9150509250929050565b600080600060608486031215612b3557600080fd5b6000612b43868287016129fe565b9350506020612b54868287016129fe565b9250506040612b6586828701612aa6565b9150509250925092565b60008060008060808587031215612b8557600080fd5b6000612b93878288016129fe565b9450506020612ba4878288016129fe565b9350506040612bb587828801612aa6565b925050606085013567ffffffffffffffff811115612bd257600080fd5b612bde87828801612a52565b91505092959194509250565b60008060408385031215612bfd57600080fd5b6000612c0b858286016129fe565b9250506020612c1c85828601612a13565b9150509250929050565b60008060408385031215612c3957600080fd5b6000612c47858286016129fe565b9250506020612c5885828601612aa6565b9150509250929050565b600060208284031215612c7457600080fd5b6000612c8284828501612a28565b91505092915050565b600060208284031215612c9d57600080fd5b6000612cab84828501612a3d565b91505092915050565b600060208284031215612cc657600080fd5b600082013567ffffffffffffffff811115612ce057600080fd5b612cec84828501612a7c565b91505092915050565b600060208284031215612d0757600080fd5b6000612d1584828501612aa6565b91505092915050565b612d27816135ee565b82525050565b612d3681613600565b82525050565b6000612d4782613516565b612d51818561352c565b9350612d61818560208601613671565b612d6a816137dd565b840191505092915050565b6000612d8082613521565b612d8a8185613548565b9350612d9a818560208601613671565b612da3816137dd565b840191505092915050565b6000612db982613521565b612dc38185613559565b9350612dd3818560208601613671565b80840191505092915050565b6000612dec600183613559565b9150612df7826137ee565b600182019050919050565b6000612e0f602b83613548565b9150612e1a82613817565b604082019050919050565b6000612e32603283613548565b9150612e3d82613866565b604082019050919050565b6000612e55602683613548565b9150612e60826138b5565b604082019050919050565b6000612e78602583613548565b9150612e8382613904565b604082019050919050565b6000612e9b601c83613548565b9150612ea682613953565b602082019050919050565b6000612ebe602183613548565b9150612ec98261397c565b604082019050919050565b6000612ee1602483613548565b9150612eec826139cb565b604082019050919050565b6000612f04601983613548565b9150612f0f82613a1a565b602082019050919050565b6000612f27602c83613548565b9150612f3282613a43565b604082019050919050565b6000612f4a603883613548565b9150612f5582613a92565b604082019050919050565b6000612f6d602a83613548565b9150612f7882613ae1565b604082019050919050565b6000612f90602983613548565b9150612f9b82613b30565b604082019050919050565b6000612fb3602a83613548565b9150612fbe82613b7f565b604082019050919050565b6000612fd6602083613548565b9150612fe182613bce565b602082019050919050565b6000612ff9602c83613548565b915061300482613bf7565b604082019050919050565b600061301c602083613548565b915061302782613c46565b602082019050919050565b600061303f602f83613548565b915061304a82613c6f565b604082019050919050565b6000613062602183613548565b915061306d82613cbe565b604082019050919050565b600061308560008361353d565b915061309082613d0d565b600082019050919050565b60006130a8603183613548565b91506130b382613d10565b604082019050919050565b60006130cb602c83613548565b91506130d682613d5f565b604082019050919050565b6130ea81613658565b82525050565b60006130fc8284612dae565b915061310782612ddf565b915081905092915050565b600061311d82613078565b9150819050919050565b600060208201905061313c6000830184612d1e565b92915050565b60006080820190506131576000830187612d1e565b6131646020830186612d1e565b61317160408301856130e1565b81810360608301526131838184612d3c565b905095945050505050565b60006020820190506131a36000830184612d2d565b92915050565b600060208201905081810360008301526131c38184612d75565b905092915050565b600060208201905081810360008301526131e481612e02565b9050919050565b6000602082019050818103600083015261320481612e25565b9050919050565b6000602082019050818103600083015261322481612e48565b9050919050565b6000602082019050818103600083015261324481612e6b565b9050919050565b6000602082019050818103600083015261326481612e8e565b9050919050565b6000602082019050818103600083015261328481612eb1565b9050919050565b600060208201905081810360008301526132a481612ed4565b9050919050565b600060208201905081810360008301526132c481612ef7565b9050919050565b600060208201905081810360008301526132e481612f1a565b9050919050565b6000602082019050818103600083015261330481612f3d565b9050919050565b6000602082019050818103600083015261332481612f60565b9050919050565b6000602082019050818103600083015261334481612f83565b9050919050565b6000602082019050818103600083015261336481612fa6565b9050919050565b6000602082019050818103600083015261338481612fc9565b9050919050565b600060208201905081810360008301526133a481612fec565b9050919050565b600060208201905081810360008301526133c48161300f565b9050919050565b600060208201905081810360008301526133e481613032565b9050919050565b6000602082019050818103600083015261340481613055565b9050919050565b600060208201905081810360008301526134248161309b565b9050919050565b60006020820190508181036000830152613444816130be565b9050919050565b600060208201905061346060008301846130e1565b92915050565b600060408201905061347b60008301856130e1565b6134886020830184612d1e565b9392505050565b60006134996134aa565b90506134a582826136d6565b919050565b6000604051905090565b600067ffffffffffffffff8211156134cf576134ce6137ae565b5b6134d8826137dd565b9050602081019050919050565b600067ffffffffffffffff821115613500576134ff6137ae565b5b613509826137dd565b9050602081019050919050565b600081519050919050565b600081519050919050565b600082825260208201905092915050565b600081905092915050565b600082825260208201905092915050565b600081905092915050565b600061356f82613658565b915061357a83613658565b9250827fffffffffffffffffffffffffffffffffffffffffffffffffffffffffffffffff038211156135af576135ae613750565b5b828201905092915050565b60006135c582613658565b91506135d083613658565b9250828210156135e3576135e2613750565b5b828203905092915050565b60006135f982613638565b9050919050565b60008115159050919050565b60007fffffffff0000000000000000000000000000000000000000000000000000000082169050919050565b600073ffffffffffffffffffffffffffffffffffffffff82169050919050565b6000819050919050565b82818337600083830152505050565b60005b8381101561368f578082015181840152602081019050613674565b8381111561369e576000848401525b50505050565b600060028204905060018216806136bc57607f821691505b602082108114156136d0576136cf61377f565b5b50919050565b6136df826137dd565b810181811067ffffffffffffffff821117156136fe576136fd6137ae565b5b80604052505050565b600061371282613658565b91507fffffffffffffffffffffffffffffffffffffffffffffffffffffffffffffffff82141561374557613744613750565b5b600182019050919050565b7f4e487b7100000000000000000000000000000000000000000000000000000000600052601160045260246000fd5b7f4e487b7100000000000000000000000000000000000000000000000000000000600052602260045260246000fd5b7f4e487b7100000000000000000000000000000000000000000000000000000000600052604160045260246000fd5b6000601f19601f8301169050919050565b7f3000000000000000000000000000000000000000000000000000000000000000600082015250565b7f455243373231456e756d657261626c653a206f776e657220696e646578206f7560008201527f74206f6620626f756e6473000000000000000000000000000000000000000000602082015250565b7f4552433732313a207472616e7366657220746f206e6f6e20455243373231526560008201527f63656976657220696d706c656d656e7465720000000000000000000000000000602082015250565b7f4f776e61626c653a206e6577206f776e657220697320746865207a65726f206160008201527f6464726573730000000000000000000000000000000000000000000000000000602082015250565b7f4552433732313a207472616e736665722066726f6d20696e636f72726563742060008201527f6f776e6572000000000000000000000000000000000000000000000000000000602082015250565b7f4552433732313a20746f6b656e20616c7265616479206d696e74656400000000600082015250565b7f53616c65206d7573742062652061637469766520746f206d696e7420546f6b6560008201527f6e00000000000000000000000000000000000000000000000000000000000000602082015250565b7f4552433732313a207472616e7366657220746f20746865207a65726f2061646460008201527f7265737300000000000000000000000000000000000000000000000000000000602082015250565b7f4552433732313a20617070726f766520746f2063616c6c657200000000000000600082015250565b7f4552433732313a206f70657261746f7220717565727920666f72206e6f6e657860008201527f697374656e7420746f6b656e0000000000000000000000000000000000000000602082015250565b7f4552433732313a20617070726f76652063616c6c6572206973206e6f74206f7760008201527f6e6572206e6f7220617070726f76656420666f7220616c6c0000000000000000602082015250565b7f4552433732313a2062616c616e636520717565727920666f7220746865207a6560008201527f726f206164647265737300000000000000000000000000000000000000000000602082015250565b7f4552433732313a206f776e657220717565727920666f72206e6f6e657869737460008201527f656e7420746f6b656e0000000000000000000000000000000000000000000000602082015250565b7f507572636861736520776f756c6420657863656564206d617820737570706c7960008201527f206f6620746f6b656e7300000000000000000000000000000000000000000000602082015250565b7f4552433732313a206d696e7420746f20746865207a65726f2061646472657373600082015250565b7f4552433732313a20617070726f76656420717565727920666f72206e6f6e657860008201527f697374656e7420746f6b656e0000000000000000000000000000000000000000602082015250565b7f4f776e61626c653a2063616c6c6572206973206e6f7420746865206f776e6572600082015250565b7f4552433732314d657461646174613a2055524920717565727920666f72206e6f60008201527f6e6578697374656e7420746f6b656e0000000000000000000000000000000000602082015250565b7f4552433732313a20617070726f76616c20746f2063757272656e74206f776e6560008201527f7200000000000000000000000000000000000000000000000000000000000000602082015250565b50565b7f4552433732313a207472616e736665722063616c6c6572206973206e6f74206f60008201527f776e6572206e6f7220617070726f766564000000000000000000000000000000602082015250565b7f455243373231456e756d657261626c653a20676c6f62616c20696e646578206f60008201527f7574206f6620626f756e64730000000000000000000000000000000000000000602082015250565b613db7816135ee565b8114613dc257600080fd5b50565b613dce81613600565b8114613dd957600080fd5b50565b613de58161360c565b8114613df057600080fd5b50565b613dfc81613658565b8114613e0757600080fd5b5056fea2646970667358221220d39a94b4dcad19d63d7d3b84b358315e5734ec6f3c63089f9cfa200c5ea2cf9264736f6c6343000804003368747470733a2f2f676174657761792e70696e6174612e636c6f75642f697066732f516d5a48743754664e486b677268316a7376745256756e7674716666356e3153566a466f533762626979526369792f",
  "linkReferences": {},
  "deployedLinkReferences": {}
}