{
  "_format": "hh-sol-artifact-1",
  "contractName": "NFTFLOW",
  "sourceName": "contracts/NFTflow.sol",
  "abi": [
    {
      "inputs": [],
      "stateMutability": "nonpayable",
      "type": "constructor"
    },
    {
      "anonymous": false,
      "inputs": [
        {
          "indexed": true,
          "internalType": "address",
          "name": "owner",
          "type": "address"
        },
        {
          "indexed": true,
          "internalType": "address",
          "name": "approved",
          "type": "address"
        },
        {
          "indexed": true,
          "internalType": "uint256",
          "name": "tokenId",
          "type": "uint256"
        }
      ],
      "name": "Approval",
      "type": "event"
    },
    {
      "anonymous": false,
      "inputs": [
        {
          "indexed": true,
          "internalType": "address",
          "name": "owner",
          "type": "address"
        },
        {
          "indexed": true,
          "internalType": "address",
          "name": "operator",
          "type": "address"
        },
        {
          "indexed": false,
          "internalType": "bool",
          "name": "approved",
          "type": "bool"
        }
      ],
      "name": "ApprovalForAll",
      "type": "event"
    },
    {
      "anonymous": false,
      "inputs": [
        {
          "indexed": false,
          "internalType": "uint256",
          "name": "tokenId",
          "type": "uint256"
        },
        {
          "indexed": false,
          "internalType": "address",
          "name": "owner",
          "type": "address"
        }
      ],
      "name": "NFTMinted",
      "type": "event"
    },
    {
      "anonymous": false,
      "inputs": [
        {
          "indexed": true,
          "internalType": "address",
          "name": "previousOwner",
          "type": "address"
        },
        {
          "indexed": true,
          "internalType": "address",
          "name": "newOwner",
          "type": "address"
        }
      ],
      "name": "OwnershipTransferred",
      "type": "event"
    },
    {
      "anonymous": false,
      "inputs": [
        {
          "indexed": true,
          "internalType": "address",
          "name": "from",
          "type": "address"
        },
        {
          "indexed": true,
          "internalType": "address",
          "name": "to",
          "type": "address"
        },
        {
          "indexed": true,
          "internalType": "uint256",
          "name": "tokenId",
          "type": "uint256"
        }
      ],
      "name": "Transfer",
      "type": "event"
    },
    {
      "inputs": [],
      "name": "MAX_TOKENS",
      "outputs": [
        {
          "internalType": "uint256",
          "name": "",
          "type": "uint256"
        }
      ],
      "stateMutability": "view",
      "type": "function"
    },
    {
      "inputs": [
        {
          "internalType": "address",
          "name": "to",
          "type": "address"
        },
        {
          "internalType": "uint256",
          "name": "tokenId",
          "type": "uint256"
        }
      ],
      "name": "approve",
      "outputs": [],
      "stateMutability": "nonpayable",
      "type": "function"
    },
    {
      "inputs": [
        {
          "internalType": "address",
          "name": "owner",
          "type": "address"
        }
      ],
      "name": "balanceOf",
      "outputs": [
        {
          "internalType": "uint256",
          "name": "",
          "type": "uint256"
        }
      ],
      "stateMutability": "view",
      "type": "function"
    },
    {
      "inputs": [],
      "name": "baseURI",
      "outputs": [
        {
          "internalType": "string",
          "name": "",
          "type": "string"
        }
      ],
      "stateMutability": "view",
      "type": "function"
    },
    {
      "inputs": [
        {
          "internalType": "uint256",
          "name": "tokenId",
          "type": "uint256"
        }
      ],
      "name": "getApproved",
      "outputs": [
        {
          "internalType": "address",
          "name": "",
          "type": "address"
        }
      ],
      "stateMutability": "view",
      "type": "function"
    },
    {
      "inputs": [],
      "name": "getTokensMinted",
      "outputs": [
        {
          "internalType": "uint256",
          "name": "",
          "type": "uint256"
        }
      ],
      "stateMutability": "view",
      "type": "function"
    },
    {
      "inputs": [
        {
          "internalType": "address",
          "name": "owner",
          "type": "address"
        },
        {
          "internalType": "address",
          "name": "operator",
          "type": "address"
        }
      ],
      "name": "isApprovedForAll",
      "outputs": [
        {
          "internalType": "bool",
          "name": "",
          "type": "bool"
        }
      ],
      "stateMutability": "view",
      "type": "function"
    },
    {
      "inputs": [],
      "name": "maxTokenPurchase",
      "outputs": [
        {
          "internalType": "uint256",
          "name": "",
          "type": "uint256"
        }
      ],
      "stateMutability": "view",
      "type": "function"
    },
    {
      "inputs": [],
      "name": "mint1",
      "outputs": [],
      "stateMutability": "payable",
      "type": "function"
    },
    {
      "inputs": [
        {
          "internalType": "uint256",
          "name": "number",
          "type": "uint256"
        }
      ],
      "name": "mint2",
      "outputs": [],
      "stateMutability": "payable",
      "type": "function"
    },
    {
      "inputs": [
        {
          "internalType": "address",
          "name": "receiver",
          "type": "address"
        },
        {
          "internalType": "uint256",
          "name": "numberOfTokens",
          "type": "uint256"
        }
      ],
      "name": "mint3",
      "outputs": [],
      "stateMutability": "nonpayable",
      "type": "function"
    },
    {
      "inputs": [],
      "name": "name",
      "outputs": [
        {
          "internalType": "string",
          "name": "",
          "type": "string"
        }
      ],
      "stateMutability": "view",
      "type": "function"
    },
    {
      "inputs": [],
      "name": "owner",
      "outputs": [
        {
          "internalType": "address",
          "name": "",
          "type": "address"
        }
      ],
      "stateMutability": "view",
      "type": "function"
    },
    {
      "inputs": [
        {
          "internalType": "uint256",
          "name": "tokenId",
          "type": "uint256"
        }
      ],
      "name": "ownerOf",
      "outputs": [
        {
          "internalType": "address",
          "name": "",
          "type": "address"
        }
      ],
      "stateMutability": "view",
      "type": "function"
    },
    {
      "inputs": [],
      "name": "renounceOwnership",
      "outputs": [],
      "stateMutability": "nonpayable",
      "type": "function"
    },
    {
      "inputs": [
        {
          "internalType": "address",
          "name": "from",
          "type": "address"
        },
        {
          "internalType": "address",
          "name": "to",
          "type": "address"
        },
        {
          "internalType": "uint256",
          "name": "tokenId",
          "type": "uint256"
        }
      ],
      "name": "safeTransferFrom",
      "outputs": [],
      "stateMutability": "nonpayable",
      "type": "function"
    },
    {
      "inputs": [
        {
          "internalType": "address",
          "name": "from",
          "type": "address"
        },
        {
          "internalType": "address",
          "name": "to",
          "type": "address"
        },
        {
          "internalType": "uint256",
          "name": "tokenId",
          "type": "uint256"
        },
        {
          "internalType": "bytes",
          "name": "_data",
          "type": "bytes"
        }
      ],
      "name": "safeTransferFrom",
      "outputs": [],
      "stateMutability": "nonpayable",
      "type": "function"
    },
    {
      "inputs": [],
      "name": "saleIsActive",
      "outputs": [
        {
          "internalType": "bool",
          "name": "",
          "type": "bool"
        }
      ],
      "stateMutability": "view",
      "type": "function"
    },
    {
      "inputs": [
        {
          "internalType": "address",
          "name": "operator",
          "type": "address"
        },
        {
          "internalType": "bool",
          "name": "approved",
          "type": "bool"
        }
      ],
      "name": "setApprovalForAll",
      "outputs": [],
      "stateMutability": "nonpayable",
      "type": "function"
    },
    {
      "inputs": [
        {
          "internalType": "string",
          "name": "_newBaseURI",
          "type": "string"
        }
      ],
      "name": "setBaseURI",
      "outputs": [],
      "stateMutability": "nonpayable",
      "type": "function"
    },
    {
      "inputs": [
        {
          "internalType": "uint256",
          "name": "_price",
          "type": "uint256"
        }
      ],
      "name": "setPrice",
      "outputs": [],
      "stateMutability": "nonpayable",
      "type": "function"
    },
    {
      "inputs": [
        {
          "internalType": "bytes4",
          "name": "interfaceId",
          "type": "bytes4"
        }
      ],
      "name": "supportsInterface",
      "outputs": [
        {
          "internalType": "bool",
          "name": "",
          "type": "bool"
        }
      ],
      "stateMutability": "view",
      "type": "function"
    },
    {
      "inputs": [],
      "name": "symbol",
      "outputs": [
        {
          "internalType": "string",
          "name": "",
          "type": "string"
        }
      ],
      "stateMutability": "view",
      "type": "function"
    },
    {
      "inputs": [],
      "name": "toggleSaleState",
      "outputs": [],
      "stateMutability": "nonpayable",
      "type": "function"
    },
    {
      "inputs": [
        {
          "internalType": "uint256",
          "name": "index",
          "type": "uint256"
        }
      ],
      "name": "tokenByIndex",
      "outputs": [
        {
          "internalType": "uint256",
          "name": "",
          "type": "uint256"
        }
      ],
      "stateMutability": "view",
      "type": "function"
    },
    {
      "inputs": [
        {
          "internalType": "address",
          "name": "owner",
          "type": "address"
        },
        {
          "internalType": "uint256",
          "name": "index",
          "type": "uint256"
        }
      ],
      "name": "tokenOfOwnerByIndex",
      "outputs": [
        {
          "internalType": "uint256",
          "name": "",
          "type": "uint256"
        }
      ],
      "stateMutability": "view",
      "type": "function"
    },
    {
      "inputs": [],
      "name": "tokenPrice",
      "outputs": [
        {
          "internalType": "uint256",
          "name": "",
          "type": "uint256"
        }
      ],
      "stateMutability": "view",
      "type": "function"
    },
    {
      "inputs": [
        {
          "internalType": "uint256",
          "name": "tokenId",
          "type": "uint256"
        }
      ],
      "name": "tokenURI",
      "outputs": [
        {
          "internalType": "string",
          "name": "",
          "type": "string"
        }
      ],
      "stateMutability": "view",
      "type": "function"
    },
    {
      "inputs": [],
      "name": "totalSupply",
      "outputs": [
        {
          "internalType": "uint256",
          "name": "",
          "type": "uint256"
        }
      ],
      "stateMutability": "view",
      "type": "function"
    },
    {
      "inputs": [
        {
          "internalType": "address",
          "name": "from",
          "type": "address"
        },
        {
          "internalType": "address",
          "name": "to",
          "type": "address"
        },
        {
          "internalType": "uint256",
          "name": "tokenId",
          "type": "uint256"
        }
      ],
      "name": "transferFrom",
      "outputs": [],
      "stateMutability": "nonpayable",
      "type": "function"
    },
    {
      "inputs": [
        {
          "internalType": "address",
          "name": "newOwner",
          "type": "address"
        }
      ],
      "name": "transferOwnership",
      "outputs": [],
      "stateMutability": "nonpayable",
      "type": "function"
    },
    {
      "inputs": [],
      "name": "withdraw",
      "outputs": [],
      "stateMutability": "payable",
      "type": "function"
    }
  ],
  "bytecode": "0x608060405267016345785d8a0000600b556001600c55610457600d556040518060800160405280605181526020016200444060519139600e90805190602001906200004c9291906200020a565b506001600f60006101000a81548160ff0219169083151502179055503480156200007557600080fd5b506040518060400160405280601781526020017f4e4654666c6f77204d656d6265727368697020506173730000000000000000008152506040518060400160405280600781526020017f4e4654666c6f77000000000000000000000000000000000000000000000000008152508160009080519060200190620000fa9291906200020a565b508060019080519060200190620001139291906200020a565b505050620001366200012a6200013c60201b60201c565b6200014460201b60201c565b6200031f565b600033905090565b6000600660009054906101000a900473ffffffffffffffffffffffffffffffffffffffff16905081600660006101000a81548173ffffffffffffffffffffffffffffffffffffffff021916908373ffffffffffffffffffffffffffffffffffffffff1602179055508173ffffffffffffffffffffffffffffffffffffffff168173ffffffffffffffffffffffffffffffffffffffff167f8be0079c531659141344cd1fd0a4f28419497f9722a3daafe3b4186f6b6457e060405160405180910390a35050565b8280546200021890620002ba565b90600052602060002090601f0160209004810192826200023c576000855562000288565b82601f106200025757805160ff191683800117855562000288565b8280016001018555821562000288579182015b82811115620002875782518255916020019190600101906200026a565b5b5090506200029791906200029b565b5090565b5b80821115620002b65760008160009055506001016200029c565b5090565b60006002820490506001821680620002d357607f821691505b60208210811415620002ea57620002e9620002f0565b5b50919050565b7f4e487b7100000000000000000000000000000000000000000000000000000000600052602260045260246000fd5b614111806200032f6000396000f3fe6080604052600436106101e35760003560e01c806370a0823111610102578063b88d4fde11610095578063e985e9c511610064578063e985e9c514610691578063eb8d2444146106ce578063f2fde38b146106f9578063f47c84c514610722576101e3565b8063b88d4fde146105e9578063c87b56dd14610612578063d69f6bae1461064f578063daaeec861461067a576101e3565b80638da5cb5b116100d15780638da5cb5b1461054157806391b7f5ed1461056c57806395d89b4114610595578063a22cb465146105c0576101e3565b806370a0823114610499578063715018a6146104d65780637ff9b596146104ed57806385d64c0814610518576101e3565b80632f745c591161017a5780634f6ccce7116101495780634f6ccce7146103cb57806355f804b3146104085780636352211e146104315780636c0360eb1461046e576101e3565b80632f745c591461033f5780633aa180881461037c5780633ccfd60b1461039857806342842e0e146103a2576101e3565b8063095ea7b3116101b6578063095ea7b31461029757806309aa3dcf146102c057806318160ddd146102eb57806323b872dd14610316576101e3565b806301ffc9a7146101e8578063044b4b5d1461022557806306fdde031461022f578063081812fc1461025a575b600080fd5b3480156101f457600080fd5b5061020f600480360381019061020a9190612e47565b61074d565b60405161021c9190613396565b60405180910390f35b61022d61075f565b005b34801561023b57600080fd5b506102446108a8565b60405161025191906133b1565b60405180910390f35b34801561026657600080fd5b50610281600480360381019061027c9190612eda565b61093a565b60405161028e919061332f565b60405180910390f35b3480156102a357600080fd5b506102be60048036038101906102b99190612e0b565b6109bf565b005b3480156102cc57600080fd5b506102d5610ad7565b6040516102e29190613673565b60405180910390f35b3480156102f757600080fd5b50610300610add565b60405161030d9190613673565b60405180910390f35b34801561032257600080fd5b5061033d60048036038101906103389190612d05565b610aea565b005b34801561034b57600080fd5b5061036660048036038101906103619190612e0b565b610b4a565b6040516103739190613673565b60405180910390f35b61039660048036038101906103919190612eda565b610bef565b005b6103a0610d97565b005b3480156103ae57600080fd5b506103c960048036038101906103c49190612d05565b610e93565b005b3480156103d757600080fd5b506103f260048036038101906103ed9190612eda565b610eb3565b6040516103ff9190613673565b60405180910390f35b34801561041457600080fd5b5061042f600480360381019061042a9190612e99565b610f4a565b005b34801561043d57600080fd5b5061045860048036038101906104539190612eda565b610fe0565b604051610465919061332f565b60405180910390f35b34801561047a57600080fd5b50610483611092565b60405161049091906133b1565b60405180910390f35b3480156104a557600080fd5b506104c060048036038101906104bb9190612ca0565b611120565b6040516104cd9190613673565b60405180910390f35b3480156104e257600080fd5b506104eb6111d8565b005b3480156104f957600080fd5b50610502611260565b60405161050f9190613673565b60405180910390f35b34801561052457600080fd5b5061053f600480360381019061053a9190612e0b565b611266565b005b34801561054d57600080fd5b506105566113d9565b604051610563919061332f565b60405180910390f35b34801561057857600080fd5b50610593600480360381019061058e9190612eda565b611403565b005b3480156105a157600080fd5b506105aa611489565b6040516105b791906133b1565b60405180910390f35b3480156105cc57600080fd5b506105e760048036038101906105e29190612dcf565b61151b565b005b3480156105f557600080fd5b50610610600480360381019061060b9190612d54565b611531565b005b34801561061e57600080fd5b5061063960048036038101906106349190612eda565b611593565b60405161064691906133b1565b60405180910390f35b34801561065b57600080fd5b50610664611630565b6040516106719190613673565b60405180910390f35b34801561068657600080fd5b5061068f61163f565b005b34801561069d57600080fd5b506106b860048036038101906106b39190612cc9565b6116e7565b6040516106c59190613396565b60405180910390f35b3480156106da57600080fd5b506106e361177b565b6040516106f09190613396565b60405180910390f35b34801561070557600080fd5b50610720600480360381019061071b9190612ca0565b61178e565b005b34801561072e57600080fd5b50610737611886565b6040516107449190613673565b60405180910390f35b60006107588261188c565b9050919050565b600f60009054906101000a900460ff166107ae576040517f08c379a00000000000000000000000000000000000000000000000000000000081526004016107a590613493565b60405180910390fd5b600d546107cc60016107be610add565b61190690919063ffffffff16565b111561080d576040517f08c379a000000000000000000000000000000000000000000000000000000000815260040161080490613573565b60405180910390fd5b600061081833611120565b1461082257600080fd5b600b5434101561083157600080fd5b600061084e6001610840610add565b61190690919063ffffffff16565b9050600d5461085b610add565b10156108a55761086b338261191c565b7f0176f203df400d7bd5f1b1c9ef36c16709bf3b5d9fd35f000a6bae32393f66c3813360405161089c92919061368e565b60405180910390a15b50565b6060600080546108b790613926565b80601f01602080910402602001604051908101604052809291908181526020018280546108e390613926565b80156109305780601f1061090557610100808354040283529160200191610930565b820191906000526020600020905b81548152906001019060200180831161091357829003601f168201915b5050505050905090565b60006109458261193a565b610984576040517f08c379a000000000000000000000000000000000000000000000000000000000815260040161097b906135b3565b60405180910390fd5b6004600083815260200190815260200160002060009054906101000a900473ffffffffffffffffffffffffffffffffffffffff169050919050565b60006109ca82610fe0565b90508073ffffffffffffffffffffffffffffffffffffffff168373ffffffffffffffffffffffffffffffffffffffff161415610a3b576040517f08c379a0000000000000000000000000000000000000000000000000000000008152600401610a3290613613565b60405180910390fd5b8073ffffffffffffffffffffffffffffffffffffffff16610a5a6119a6565b73ffffffffffffffffffffffffffffffffffffffff161480610a895750610a8881610a836119a6565b6116e7565b5b610ac8576040517f08c379a0000000000000000000000000000000000000000000000000000000008152600401610abf90613513565b60405180910390fd5b610ad283836119ae565b505050565b600c5481565b6000600980549050905090565b610afb610af56119a6565b82611a67565b610b3a576040517f08c379a0000000000000000000000000000000000000000000000000000000008152600401610b3190613633565b60405180910390fd5b610b45838383611b45565b505050565b6000610b5583611120565b8210610b96576040517f08c379a0000000000000000000000000000000000000000000000000000000008152600401610b8d906133f3565b60405180910390fd5b600760008473ffffffffffffffffffffffffffffffffffffffff1673ffffffffffffffffffffffffffffffffffffffff168152602001908152602001600020600083815260200190815260200160002054905092915050565b600f60009054906101000a900460ff16610c3e576040517f08c379a0000000000000000000000000000000000000000000000000000000008152600401610c3590613493565b60405180910390fd5b60008111610c81576040517f08c379a0000000000000000000000000000000000000000000000000000000008152600401610c78906133d3565b60405180910390fd5b600d54610c9e82610c90610add565b61190690919063ffffffff16565b1115610cdf576040517f08c379a0000000000000000000000000000000000000000000000000000000008152600401610cd690613573565b60405180910390fd5b610cf481600b54611dac90919063ffffffff16565b341015610d0057600080fd5b60005b81811015610d93576000610d286001610d1a610add565b61190690919063ffffffff16565b9050600d54610d35610add565b1015610d7f57610d45338261191c565b7f0176f203df400d7bd5f1b1c9ef36c16709bf3b5d9fd35f000a6bae32393f66c38133604051610d7692919061368e565b60405180910390a15b508080610d8b90613989565b915050610d03565b5050565b610d9f6119a6565b73ffffffffffffffffffffffffffffffffffffffff16610dbd6113d9565b73ffffffffffffffffffffffffffffffffffffffff1614610e13576040517f08c379a0000000000000000000000000000000000000000000000000000000008152600401610e0a906135d3565b60405180910390fd5b6000610e1d6113d9565b73ffffffffffffffffffffffffffffffffffffffff1647604051610e409061331a565b60006040518083038185875af1925050503d8060008114610e7d576040519150601f19603f3d011682016040523d82523d6000602084013e610e82565b606091505b5050905080610e9057600080fd5b50565b610eae83838360405180602001604052806000815250611531565b505050565b6000610ebd610add565b8210610efe576040517f08c379a0000000000000000000000000000000000000000000000000000000008152600401610ef590613653565b60405180910390fd5b60098281548110610f38577f4e487b7100000000000000000000000000000000000000000000000000000000600052603260045260246000fd5b90600052602060002001549050919050565b610f526119a6565b73ffffffffffffffffffffffffffffffffffffffff16610f706113d9565b73ffffffffffffffffffffffffffffffffffffffff1614610fc6576040517f08c379a0000000000000000000000000000000000000000000000000000000008152600401610fbd906135d3565b60405180910390fd5b80600e9080519060200190610fdc929190612ac4565b5050565b6000806002600084815260200190815260200160002060009054906101000a900473ffffffffffffffffffffffffffffffffffffffff169050600073ffffffffffffffffffffffffffffffffffffffff168173ffffffffffffffffffffffffffffffffffffffff161415611089576040517f08c379a000000000000000000000000000000000000000000000000000000000815260040161108090613553565b60405180910390fd5b80915050919050565b600e805461109f90613926565b80601f01602080910402602001604051908101604052809291908181526020018280546110cb90613926565b80156111185780601f106110ed57610100808354040283529160200191611118565b820191906000526020600020905b8154815290600101906020018083116110fb57829003601f168201915b505050505081565b60008073ffffffffffffffffffffffffffffffffffffffff168273ffffffffffffffffffffffffffffffffffffffff161415611191576040517f08c379a000000000000000000000000000000000000000000000000000000000815260040161118890613533565b60405180910390fd5b600360008373ffffffffffffffffffffffffffffffffffffffff1673ffffffffffffffffffffffffffffffffffffffff168152602001908152602001600020549050919050565b6111e06119a6565b73ffffffffffffffffffffffffffffffffffffffff166111fe6113d9565b73ffffffffffffffffffffffffffffffffffffffff1614611254576040517f08c379a000000000000000000000000000000000000000000000000000000000815260040161124b906135d3565b60405180910390fd5b61125e6000611dc2565b565b600b5481565b61126e6119a6565b73ffffffffffffffffffffffffffffffffffffffff1661128c6113d9565b73ffffffffffffffffffffffffffffffffffffffff16146112e2576040517f08c379a00000000000000000000000000000000000000000000000000000000081526004016112d9906135d3565b60405180910390fd5b600d5461130060016112f2610add565b61190690919063ffffffff16565b1115611341576040517f08c379a000000000000000000000000000000000000000000000000000000000815260040161133890613573565b60405180910390fd5b60005b818110156113d4576000611369600161135b610add565b61190690919063ffffffff16565b9050600d54611376610add565b10156113c057611386848261191c565b7f0176f203df400d7bd5f1b1c9ef36c16709bf3b5d9fd35f000a6bae32393f66c381856040516113b792919061368e565b60405180910390a15b5080806113cc90613989565b915050611344565b505050565b6000600660009054906101000a900473ffffffffffffffffffffffffffffffffffffffff16905090565b61140b6119a6565b73ffffffffffffffffffffffffffffffffffffffff166114296113d9565b73ffffffffffffffffffffffffffffffffffffffff161461147f576040517f08c379a0000000000000000000000000000000000000000000000000000000008152600401611476906135d3565b60405180910390fd5b80600b8190555050565b60606001805461149890613926565b80601f01602080910402602001604051908101604052809291908181526020018280546114c490613926565b80156115115780601f106114e657610100808354040283529160200191611511565b820191906000526020600020905b8154815290600101906020018083116114f457829003601f168201915b5050505050905090565b61152d6115266119a6565b8383611e88565b5050565b61154261153c6119a6565b83611a67565b611581576040517f08c379a000000000000000000000000000000000000000000000000000000000815260040161157890613633565b60405180910390fd5b61158d84848484611ff5565b50505050565b606061159e8261193a565b6115dd576040517f08c379a00000000000000000000000000000000000000000000000000000000081526004016115d4906135f3565b60405180910390fd5b60006115e7612051565b905060008151116116075760405180602001604052806000815250611628565b8060405160200161161891906132f8565b6040516020818303038152906040525b915050919050565b600061163a610add565b905090565b6116476119a6565b73ffffffffffffffffffffffffffffffffffffffff166116656113d9565b73ffffffffffffffffffffffffffffffffffffffff16146116bb576040517f08c379a00000000000000000000000000000000000000000000000000000000081526004016116b2906135d3565b60405180910390fd5b600f60009054906101000a900460ff1615600f60006101000a81548160ff021916908315150217905550565b6000600560008473ffffffffffffffffffffffffffffffffffffffff1673ffffffffffffffffffffffffffffffffffffffff16815260200190815260200160002060008373ffffffffffffffffffffffffffffffffffffffff1673ffffffffffffffffffffffffffffffffffffffff16815260200190815260200160002060009054906101000a900460ff16905092915050565b600f60009054906101000a900460ff1681565b6117966119a6565b73ffffffffffffffffffffffffffffffffffffffff166117b46113d9565b73ffffffffffffffffffffffffffffffffffffffff161461180a576040517f08c379a0000000000000000000000000000000000000000000000000000000008152600401611801906135d3565b60405180910390fd5b600073ffffffffffffffffffffffffffffffffffffffff168173ffffffffffffffffffffffffffffffffffffffff16141561187a576040517f08c379a000000000000000000000000000000000000000000000000000000000815260040161187190613433565b60405180910390fd5b61188381611dc2565b50565b600d5481565b60007f780e9d63000000000000000000000000000000000000000000000000000000007bffffffffffffffffffffffffffffffffffffffffffffffffffffffff1916827bffffffffffffffffffffffffffffffffffffffffffffffffffffffff191614806118ff57506118fe826120e3565b5b9050919050565b60008183611914919061378c565b905092915050565b6119368282604051806020016040528060008152506121c5565b5050565b60008073ffffffffffffffffffffffffffffffffffffffff166002600084815260200190815260200160002060009054906101000a900473ffffffffffffffffffffffffffffffffffffffff1673ffffffffffffffffffffffffffffffffffffffff1614159050919050565b600033905090565b816004600083815260200190815260200160002060006101000a81548173ffffffffffffffffffffffffffffffffffffffff021916908373ffffffffffffffffffffffffffffffffffffffff160217905550808273ffffffffffffffffffffffffffffffffffffffff16611a2183610fe0565b73ffffffffffffffffffffffffffffffffffffffff167f8c5be1e5ebec7d5bd14f71427d1e84f3dd0314c0f7b2291e5b200ac8c7c3b92560405160405180910390a45050565b6000611a728261193a565b611ab1576040517f08c379a0000000000000000000000000000000000000000000000000000000008152600401611aa8906134f3565b60405180910390fd5b6000611abc83610fe0565b90508073ffffffffffffffffffffffffffffffffffffffff168473ffffffffffffffffffffffffffffffffffffffff161480611b2b57508373ffffffffffffffffffffffffffffffffffffffff16611b138461093a565b73ffffffffffffffffffffffffffffffffffffffff16145b80611b3c5750611b3b81856116e7565b5b91505092915050565b8273ffffffffffffffffffffffffffffffffffffffff16611b6582610fe0565b73ffffffffffffffffffffffffffffffffffffffff1614611bbb576040517f08c379a0000000000000000000000000000000000000000000000000000000008152600401611bb290613453565b60405180910390fd5b600073ffffffffffffffffffffffffffffffffffffffff168273ffffffffffffffffffffffffffffffffffffffff161415611c2b576040517f08c379a0000000000000000000000000000000000000000000000000000000008152600401611c22906134b3565b60405180910390fd5b611c36838383612220565b611c416000826119ae565b6001600360008573ffffffffffffffffffffffffffffffffffffffff1673ffffffffffffffffffffffffffffffffffffffff1681526020019081526020016000206000828254611c91919061383c565b925050819055506001600360008473ffffffffffffffffffffffffffffffffffffffff1673ffffffffffffffffffffffffffffffffffffffff1681526020019081526020016000206000828254611ce8919061378c565b92505081905550816002600083815260200190815260200160002060006101000a81548173ffffffffffffffffffffffffffffffffffffffff021916908373ffffffffffffffffffffffffffffffffffffffff160217905550808273ffffffffffffffffffffffffffffffffffffffff168473ffffffffffffffffffffffffffffffffffffffff167fddf252ad1be2c89b69c2b068fc378daa952ba7f163c4a11628f55a4df523b3ef60405160405180910390a4611da7838383612230565b505050565b60008183611dba91906137e2565b905092915050565b6000600660009054906101000a900473ffffffffffffffffffffffffffffffffffffffff16905081600660006101000a81548173ffffffffffffffffffffffffffffffffffffffff021916908373ffffffffffffffffffffffffffffffffffffffff1602179055508173ffffffffffffffffffffffffffffffffffffffff168173ffffffffffffffffffffffffffffffffffffffff167f8be0079c531659141344cd1fd0a4f28419497f9722a3daafe3b4186f6b6457e060405160405180910390a35050565b8173ffffffffffffffffffffffffffffffffffffffff168373ffffffffffffffffffffffffffffffffffffffff161415611ef7576040517f08c379a0000000000000000000000000000000000000000000000000000000008152600401611eee906134d3565b60405180910390fd5b80600560008573ffffffffffffffffffffffffffffffffffffffff1673ffffffffffffffffffffffffffffffffffffffff16815260200190815260200160002060008473ffffffffffffffffffffffffffffffffffffffff1673ffffffffffffffffffffffffffffffffffffffff16815260200190815260200160002060006101000a81548160ff0219169083151502179055508173ffffffffffffffffffffffffffffffffffffffff168373ffffffffffffffffffffffffffffffffffffffff167f17307eab39ab6107e8899845ad3d59bd9653f200f220920489ca2b5937696c3183604051611fe89190613396565b60405180910390a3505050565b612000848484611b45565b61200c84848484612235565b61204b576040517f08c379a000000000000000000000000000000000000000000000000000000000815260040161204290613413565b60405180910390fd5b50505050565b6060600e805461206090613926565b80601f016020809104026020016040519081016040528092919081815260200182805461208c90613926565b80156120d95780601f106120ae576101008083540402835291602001916120d9565b820191906000526020600020905b8154815290600101906020018083116120bc57829003601f168201915b5050505050905090565b60007f80ac58cd000000000000000000000000000000000000000000000000000000007bffffffffffffffffffffffffffffffffffffffffffffffffffffffff1916827bffffffffffffffffffffffffffffffffffffffffffffffffffffffff191614806121ae57507f5b5e139f000000000000000000000000000000000000000000000000000000007bffffffffffffffffffffffffffffffffffffffffffffffffffffffff1916827bffffffffffffffffffffffffffffffffffffffffffffffffffffffff1916145b806121be57506121bd826123cc565b5b9050919050565b6121cf8383612436565b6121dc6000848484612235565b61221b576040517f08c379a000000000000000000000000000000000000000000000000000000000815260040161221290613413565b60405180910390fd5b505050565b61222b838383612610565b505050565b505050565b60006122568473ffffffffffffffffffffffffffffffffffffffff16612724565b156123bf578373ffffffffffffffffffffffffffffffffffffffff1663150b7a0261227f6119a6565b8786866040518563ffffffff1660e01b81526004016122a1949392919061334a565b602060405180830381600087803b1580156122bb57600080fd5b505af19250505080156122ec57506040513d601f19601f820116820180604052508101906122e99190612e70565b60015b61236f573d806000811461231c576040519150601f19603f3d011682016040523d82523d6000602084013e612321565b606091505b50600081511415612367576040517f08c379a000000000000000000000000000000000000000000000000000000000815260040161235e90613413565b60405180910390fd5b805181602001fd5b63150b7a0260e01b7bffffffffffffffffffffffffffffffffffffffffffffffffffffffff1916817bffffffffffffffffffffffffffffffffffffffffffffffffffffffff1916149150506123c4565b600190505b949350505050565b60007f01ffc9a7000000000000000000000000000000000000000000000000000000007bffffffffffffffffffffffffffffffffffffffffffffffffffffffff1916827bffffffffffffffffffffffffffffffffffffffffffffffffffffffff1916149050919050565b600073ffffffffffffffffffffffffffffffffffffffff168273ffffffffffffffffffffffffffffffffffffffff1614156124a6576040517f08c379a000000000000000000000000000000000000000000000000000000000815260040161249d90613593565b60405180910390fd5b6124af8161193a565b156124ef576040517f08c379a00000000000000000000000000000000000000000000000000000000081526004016124e690613473565b60405180910390fd5b6124fb60008383612220565b6001600360008473ffffffffffffffffffffffffffffffffffffffff1673ffffffffffffffffffffffffffffffffffffffff168152602001908152602001600020600082825461254b919061378c565b92505081905550816002600083815260200190815260200160002060006101000a81548173ffffffffffffffffffffffffffffffffffffffff021916908373ffffffffffffffffffffffffffffffffffffffff160217905550808273ffffffffffffffffffffffffffffffffffffffff16600073ffffffffffffffffffffffffffffffffffffffff167fddf252ad1be2c89b69c2b068fc378daa952ba7f163c4a11628f55a4df523b3ef60405160405180910390a461260c60008383612230565b5050565b61261b838383612747565b600073ffffffffffffffffffffffffffffffffffffffff168373ffffffffffffffffffffffffffffffffffffffff16141561265e576126598161274c565b61269d565b8173ffffffffffffffffffffffffffffffffffffffff168373ffffffffffffffffffffffffffffffffffffffff161461269c5761269b8382612795565b5b5b600073ffffffffffffffffffffffffffffffffffffffff168273ffffffffffffffffffffffffffffffffffffffff1614156126e0576126db81612902565b61271f565b8273ffffffffffffffffffffffffffffffffffffffff168273ffffffffffffffffffffffffffffffffffffffff161461271e5761271d8282612a45565b5b5b505050565b6000808273ffffffffffffffffffffffffffffffffffffffff163b119050919050565b505050565b600980549050600a600083815260200190815260200160002081905550600981908060018154018082558091505060019003906000526020600020016000909190919091505550565b600060016127a284611120565b6127ac919061383c565b9050600060086000848152602001908152602001600020549050818114612891576000600760008673ffffffffffffffffffffffffffffffffffffffff1673ffffffffffffffffffffffffffffffffffffffff168152602001908152602001600020600084815260200190815260200160002054905080600760008773ffffffffffffffffffffffffffffffffffffffff1673ffffffffffffffffffffffffffffffffffffffff168152602001908152602001600020600084815260200190815260200160002081905550816008600083815260200190815260200160002081905550505b6008600084815260200190815260200160002060009055600760008573ffffffffffffffffffffffffffffffffffffffff1673ffffffffffffffffffffffffffffffffffffffff16815260200190815260200160002060008381526020019081526020016000206000905550505050565b60006001600980549050612916919061383c565b90506000600a600084815260200190815260200160002054905060006009838154811061296c577f4e487b7100000000000000000000000000000000000000000000000000000000600052603260045260246000fd5b9060005260206000200154905080600983815481106129b4577f4e487b7100000000000000000000000000000000000000000000000000000000600052603260045260246000fd5b906000526020600020018190555081600a600083815260200190815260200160002081905550600a6000858152602001908152602001600020600090556009805480612a29577f4e487b7100000000000000000000000000000000000000000000000000000000600052603160045260246000fd5b6001900381819060005260206000200160009055905550505050565b6000612a5083611120565b905081600760008573ffffffffffffffffffffffffffffffffffffffff1673ffffffffffffffffffffffffffffffffffffffff168152602001908152602001600020600083815260200190815260200160002081905550806008600084815260200190815260200160002081905550505050565b828054612ad090613926565b90600052602060002090601f016020900481019282612af25760008555612b39565b82601f10612b0b57805160ff1916838001178555612b39565b82800160010185558215612b39579182015b82811115612b38578251825591602001919060010190612b1d565b5b509050612b469190612b4a565b5090565b5b80821115612b63576000816000905550600101612b4b565b5090565b6000612b7a612b75846136dc565b6136b7565b905082815260208101848484011115612b9257600080fd5b612b9d8482856138e4565b509392505050565b6000612bb8612bb38461370d565b6136b7565b905082815260208101848484011115612bd057600080fd5b612bdb8482856138e4565b509392505050565b600081359050612bf28161407f565b92915050565b600081359050612c0781614096565b92915050565b600081359050612c1c816140ad565b92915050565b600081519050612c31816140ad565b92915050565b600082601f830112612c4857600080fd5b8135612c58848260208601612b67565b91505092915050565b600082601f830112612c7257600080fd5b8135612c82848260208601612ba5565b91505092915050565b600081359050612c9a816140c4565b92915050565b600060208284031215612cb257600080fd5b6000612cc084828501612be3565b91505092915050565b60008060408385031215612cdc57600080fd5b6000612cea85828601612be3565b9250506020612cfb85828601612be3565b9150509250929050565b600080600060608486031215612d1a57600080fd5b6000612d2886828701612be3565b9350506020612d3986828701612be3565b9250506040612d4a86828701612c8b565b9150509250925092565b60008060008060808587031215612d6a57600080fd5b6000612d7887828801612be3565b9450506020612d8987828801612be3565b9350506040612d9a87828801612c8b565b925050606085013567ffffffffffffffff811115612db757600080fd5b612dc387828801612c37565b91505092959194509250565b60008060408385031215612de257600080fd5b6000612df085828601612be3565b9250506020612e0185828601612bf8565b9150509250929050565b60008060408385031215612e1e57600080fd5b6000612e2c85828601612be3565b9250506020612e3d85828601612c8b565b9150509250929050565b600060208284031215612e5957600080fd5b6000612e6784828501612c0d565b91505092915050565b600060208284031215612e8257600080fd5b6000612e9084828501612c22565b91505092915050565b600060208284031215612eab57600080fd5b600082013567ffffffffffffffff811115612ec557600080fd5b612ed184828501612c61565b91505092915050565b600060208284031215612eec57600080fd5b6000612efa84828501612c8b565b91505092915050565b612f0c81613870565b82525050565b612f1b81613882565b82525050565b6000612f2c8261373e565b612f368185613754565b9350612f468185602086016138f3565b612f4f81613a5f565b840191505092915050565b6000612f6582613749565b612f6f8185613770565b9350612f7f8185602086016138f3565b612f8881613a5f565b840191505092915050565b6000612f9e82613749565b612fa88185613781565b9350612fb88185602086016138f3565b80840191505092915050565b6000612fd1602a83613770565b9150612fdc82613a70565b604082019050919050565b6000612ff4600183613781565b9150612fff82613abf565b600182019050919050565b6000613017602b83613770565b915061302282613ae8565b604082019050919050565b600061303a603283613770565b915061304582613b37565b604082019050919050565b600061305d602683613770565b915061306882613b86565b604082019050919050565b6000613080602583613770565b915061308b82613bd5565b604082019050919050565b60006130a3601c83613770565b91506130ae82613c24565b602082019050919050565b60006130c6602183613770565b91506130d182613c4d565b604082019050919050565b60006130e9602483613770565b91506130f482613c9c565b604082019050919050565b600061310c601983613770565b915061311782613ceb565b602082019050919050565b600061312f602c83613770565b915061313a82613d14565b604082019050919050565b6000613152603883613770565b915061315d82613d63565b604082019050919050565b6000613175602a83613770565b915061318082613db2565b604082019050919050565b6000613198602983613770565b91506131a382613e01565b604082019050919050565b60006131bb602a83613770565b91506131c682613e50565b604082019050919050565b60006131de602083613770565b91506131e982613e9f565b602082019050919050565b6000613201602c83613770565b915061320c82613ec8565b604082019050919050565b6000613224602083613770565b915061322f82613f17565b602082019050919050565b6000613247602f83613770565b915061325282613f40565b604082019050919050565b600061326a602183613770565b915061327582613f8f565b604082019050919050565b600061328d600083613765565b915061329882613fde565b600082019050919050565b60006132b0603183613770565b91506132bb82613fe1565b604082019050919050565b60006132d3602c83613770565b91506132de82614030565b604082019050919050565b6132f2816138da565b82525050565b60006133048284612f93565b915061330f82612fe7565b915081905092915050565b600061332582613280565b9150819050919050565b60006020820190506133446000830184612f03565b92915050565b600060808201905061335f6000830187612f03565b61336c6020830186612f03565b61337960408301856132e9565b818103606083015261338b8184612f21565b905095945050505050565b60006020820190506133ab6000830184612f12565b92915050565b600060208201905081810360008301526133cb8184612f5a565b905092915050565b600060208201905081810360008301526133ec81612fc4565b9050919050565b6000602082019050818103600083015261340c8161300a565b9050919050565b6000602082019050818103600083015261342c8161302d565b9050919050565b6000602082019050818103600083015261344c81613050565b9050919050565b6000602082019050818103600083015261346c81613073565b9050919050565b6000602082019050818103600083015261348c81613096565b9050919050565b600060208201905081810360008301526134ac816130b9565b9050919050565b600060208201905081810360008301526134cc816130dc565b9050919050565b600060208201905081810360008301526134ec816130ff565b9050919050565b6000602082019050818103600083015261350c81613122565b9050919050565b6000602082019050818103600083015261352c81613145565b9050919050565b6000602082019050818103600083015261354c81613168565b9050919050565b6000602082019050818103600083015261356c8161318b565b9050919050565b6000602082019050818103600083015261358c816131ae565b9050919050565b600060208201905081810360008301526135ac816131d1565b9050919050565b600060208201905081810360008301526135cc816131f4565b9050919050565b600060208201905081810360008301526135ec81613217565b9050919050565b6000602082019050818103600083015261360c8161323a565b9050919050565b6000602082019050818103600083015261362c8161325d565b9050919050565b6000602082019050818103600083015261364c816132a3565b9050919050565b6000602082019050818103600083015261366c816132c6565b9050919050565b600060208201905061368860008301846132e9565b92915050565b60006040820190506136a360008301856132e9565b6136b06020830184612f03565b9392505050565b60006136c16136d2565b90506136cd8282613958565b919050565b6000604051905090565b600067ffffffffffffffff8211156136f7576136f6613a30565b5b61370082613a5f565b9050602081019050919050565b600067ffffffffffffffff82111561372857613727613a30565b5b61373182613a5f565b9050602081019050919050565b600081519050919050565b600081519050919050565b600082825260208201905092915050565b600081905092915050565b600082825260208201905092915050565b600081905092915050565b6000613797826138da565b91506137a2836138da565b9250827fffffffffffffffffffffffffffffffffffffffffffffffffffffffffffffffff038211156137d7576137d66139d2565b5b828201905092915050565b60006137ed826138da565b91506137f8836138da565b9250817fffffffffffffffffffffffffffffffffffffffffffffffffffffffffffffffff0483118215151615613831576138306139d2565b5b828202905092915050565b6000613847826138da565b9150613852836138da565b925082821015613865576138646139d2565b5b828203905092915050565b600061387b826138ba565b9050919050565b60008115159050919050565b60007fffffffff0000000000000000000000000000000000000000000000000000000082169050919050565b600073ffffffffffffffffffffffffffffffffffffffff82169050919050565b6000819050919050565b82818337600083830152505050565b60005b838110156139115780820151818401526020810190506138f6565b83811115613920576000848401525b50505050565b6000600282049050600182168061393e57607f821691505b6020821081141561395257613951613a01565b5b50919050565b61396182613a5f565b810181811067ffffffffffffffff821117156139805761397f613a30565b5b80604052505050565b6000613994826138da565b91507fffffffffffffffffffffffffffffffffffffffffffffffffffffffffffffffff8214156139c7576139c66139d2565b5b600182019050919050565b7f4e487b7100000000000000000000000000000000000000000000000000000000600052601160045260246000fd5b7f4e487b7100000000000000000000000000000000000000000000000000000000600052602260045260246000fd5b7f4e487b7100000000000000000000000000000000000000000000000000000000600052604160045260246000fd5b6000601f19601f8301169050919050565b7f43616e206f6e6c79206d696e74206f6e65206f72206d6f726520746f6b656e7360008201527f20617420612074696d6500000000000000000000000000000000000000000000602082015250565b7f3000000000000000000000000000000000000000000000000000000000000000600082015250565b7f455243373231456e756d657261626c653a206f776e657220696e646578206f7560008201527f74206f6620626f756e6473000000000000000000000000000000000000000000602082015250565b7f4552433732313a207472616e7366657220746f206e6f6e20455243373231526560008201527f63656976657220696d706c656d656e7465720000000000000000000000000000602082015250565b7f4f776e61626c653a206e6577206f776e657220697320746865207a65726f206160008201527f6464726573730000000000000000000000000000000000000000000000000000602082015250565b7f4552433732313a207472616e736665722066726f6d20696e636f72726563742060008201527f6f776e6572000000000000000000000000000000000000000000000000000000602082015250565b7f4552433732313a20746f6b656e20616c7265616479206d696e74656400000000600082015250565b7f53616c65206d7573742062652061637469766520746f206d696e7420546f6b6560008201527f6e00000000000000000000000000000000000000000000000000000000000000602082015250565b7f4552433732313a207472616e7366657220746f20746865207a65726f2061646460008201527f7265737300000000000000000000000000000000000000000000000000000000602082015250565b7f4552433732313a20617070726f766520746f2063616c6c657200000000000000600082015250565b7f4552433732313a206f70657261746f7220717565727920666f72206e6f6e657860008201527f697374656e7420746f6b656e0000000000000000000000000000000000000000602082015250565b7f4552433732313a20617070726f76652063616c6c6572206973206e6f74206f7760008201527f6e6572206e6f7220617070726f76656420666f7220616c6c0000000000000000602082015250565b7f4552433732313a2062616c616e636520717565727920666f7220746865207a6560008201527f726f206164647265737300000000000000000000000000000000000000000000602082015250565b7f4552433732313a206f776e657220717565727920666f72206e6f6e657869737460008201527f656e7420746f6b656e0000000000000000000000000000000000000000000000602082015250565b7f507572636861736520776f756c6420657863656564206d617820737570706c7960008201527f206f6620746f6b656e7300000000000000000000000000000000000000000000602082015250565b7f4552433732313a206d696e7420746f20746865207a65726f2061646472657373600082015250565b7f4552433732313a20617070726f76656420717565727920666f72206e6f6e657860008201527f697374656e7420746f6b656e0000000000000000000000000000000000000000602082015250565b7f4f776e61626c653a2063616c6c6572206973206e6f7420746865206f776e6572600082015250565b7f4552433732314d657461646174613a2055524920717565727920666f72206e6f60008201527f6e6578697374656e7420746f6b656e0000000000000000000000000000000000602082015250565b7f4552433732313a20617070726f76616c20746f2063757272656e74206f776e6560008201527f7200000000000000000000000000000000000000000000000000000000000000602082015250565b50565b7f4552433732313a207472616e736665722063616c6c6572206973206e6f74206f60008201527f776e6572206e6f7220617070726f766564000000000000000000000000000000602082015250565b7f455243373231456e756d657261626c653a20676c6f62616c20696e646578206f60008201527f7574206f6620626f756e64730000000000000000000000000000000000000000602082015250565b61408881613870565b811461409357600080fd5b50565b61409f81613882565b81146140aa57600080fd5b50565b6140b68161388e565b81146140c157600080fd5b50565b6140cd816138da565b81146140d857600080fd5b5056fea26469706673582212209f815924b4f05a2457f9c04c9a3de2aa11a5f4fd30ee613a0e18ebbe8e2964f664736f6c6343000804003368747470733a2f2f676174657761792e70696e6174612e636c6f75642f697066732f516d5a48743754664e486b677268316a7376745256756e7674716666356e3153566a466f533762626979526369792f",
  "linkReferences": {},
  "deployedLinkReferences": {}
}